:1000000088C00000A7C00000A5C00000A3C0000079
:10001000A1C000009FC000009DC000009BC0000068
:1000200099C0000097C0000095C0000093C0000078
:1000300091C000008FC000008DC000008BC0000088
:1000400089C0000087C0000085C0000083C0000098
:1000500081C000007FC000007DC000007BC00000A8
:1000600079C000000C9464250C94962573C00000A0
:1000700071C000006FC000006DC000006BC00000C8
:1000800069C0000067C0000065C0000063C00000D8
:100090000C94C8250C94FA255DC000005BC00000DC
:1000A00059C0000057C0000055C0000053C00000F8
:1000B00051C000004FC000004DC000004BC0000008
:1000C00049C0000047C0000045C000000C942C2629
:1000D0000C945E263FC000000C9490260C94C2261F
:1000E00039C00000DA0ACE0BCE0BCE0BCE0BCE0BF6
:1000F000CE0BE509CE0BCE0BCE0BCE0BCE0B950166
:100100003D02E5028D0334041C0511060607FB07BA
:10011000F00811241FBECFEFD1E2DEBFCDBF00E05B
:100120000CBF13E0A0E0B2E0ECEBF3E500E00BBFA6
:1001300002C007900D92A238B107D9F723E0A2E8D8
:10014000B3E001C01D92AA38B207E1F70E94A014E3
:100150000C94DC2955CF8F929F92AF92BF92CF9291
:10016000DF92EF92FF920F931F93CF93DF93CDB760
:10017000DEB762970FB6F894DEBF0FBECDBF9A838D
:1001800089837C836B835E834D8338872F831A87B3
:100190000987FC86EB86DE86CD86B88AAF869A8A8A
:1001A000898A89819A812B813C81FC01318320835A
:1001B00089819A812D813E81FC013383228389814B
:1001C0009A812F813885FC013583248389819A8126
:1001D00029853A85FC013783268389819A812B857D
:1001E0003C85FC013187208789819A812D853E8558
:1001F000FC013387228789819A812F853889FC0108
:100200003587248789819A8129893A89FC01378732
:10021000268789819A81FC018081918161E00E9419
:10022000CE0C89819A81FC018281938161E00E94D8
:10023000CE0C89819A81FC018481958161E00E94C4
:10024000CE0C89819A81FC018681978161E00E94B0
:10025000CE0C89819A81FC018085918561E00E94A4
:10026000CE0C89819A81FC018285938561E00E9490
:10027000CE0C89819A81FC018485958561E00E947C
:10028000CE0C89819A81FC018685978561E00E9468
:10029000CE0C62960FB6F894DEBF0FBECDBFDF91D5
:1002A000CF911F910F91FF90EF90DF90CF90BF9073
:1002B000AF909F908F9008950F931F93CF93DF93EC
:1002C000CDB7DEB7CD5AD1090FB6F894DEBF0FBE59
:1002D000CDBF9E0125553F4FF90191838083CE010B
:1002E00083559F4FFC01608389E190E09A83898365
:1002F000CE0183559F4FFC018081882F90E0092E0D
:10030000000CAA0BBB0B43E250E026E130E0841B5B
:10031000950B2817390710F40C94CE0BFC01882795
:10032000EE58FF4F8F4F0C940D28CE0185559F4FEF
:10033000FC0180819181FC01868597850E94E80CF3
:10034000CE0185559F4FFC0180819181FC01828502
:1003500093850E94E80C89819A81092E000CAA0BD2
:10036000BB0BBC01CD010E94AF28DC01CB018B830C
:100370009C83AD83BE8320E030E04AE755E46B8187
:100380007C818D819E810E946329DC01CB018F835A
:100390009887A987BA8720E030E040E85FE36F8163
:1003A000788589859A850E94152888232CF481E018
:1003B00090E09C878B873FC020E03FEF4FE757E4FA
:1003C0006F81788589859A850E945F2918164CF57A
:1003D00020E030E040E251E46B817C818D819E81A0
:1003E0000E946329DC01CB01BC01CD010E94812860
:1003F000DC01CB019C878B870FC080E991E09E8751
:100400008D878D859E850197F1F79E878D878B85DA
:100410009C8501979C878B878B859C85892B69F7A9
:1004200014C06F81788589859A850E948128DC01B6
:10043000CB019C878B878B859C85988B8F878F853D
:1004400098890197F1F7988B8F87CE0185559F4F3B
:10045000FC0180819181FC01868597850E94E80CD2
:10046000CE0185559F4FFC0180819181FC018285E1
:1004700093850E94E80C0C94CE0BCE0185559F4FBE
:10048000FC0180819181FC01808591850E94E80CAE
:10049000CE0185559F4FFC0180819181FC018081B7
:1004A00091810E94E80C89819A81092E000CAA0B87
:1004B000BB0BBC01CD010E94AF28DC01CB01898BB5
:1004C0009A8BAB8BBC8B20E030E04AE755E469891E
:1004D0007A898B899C890E946329DC01CB018D8BF1
:1004E0009E8BAF8BB88F20E030E040E85FE36D89F2
:1004F0007E898F89988D0E94152888232CF481E0AD
:1005000090E09A8F898F3FC020E03FEF4FE757E49C
:100510006D897E898F89988D0E945F2918164CF508
:1005200020E030E040E251E469897A898B899C8936
:100530000E946329DC01CB01BC01CD010E9481280E
:10054000DC01CB019A8F898F0FC080E991E09C8FED
:100550008B8F8B8D9C8D0197F1F79C8F8B8F898D65
:100560009A8D01979A8F898F898D9A8D892B69F73A
:1005700014C06D897E898F89988D0E948128DC0145
:10058000CB019A8F898F898D9A8D9E8F8D8F8D8DBE
:100590009E8D0197F1F79E8F8D8FCE0185559F4FD0
:1005A000FC0180819181FC01808591850E94E80C8D
:1005B000CE0185559F4FFC0180819181FC01808196
:1005C00091810E94E80C0C94CE0BCE0185559F4F73
:1005D000FC0180819181FC01808591850E94E80C5D
:1005E000CE0185559F4FFC0180819181FC01828164
:1005F00093810E94E80C89819A81092E000CAA0B34
:10060000BB0BBC01CD010E94AF28DC01CB018F8F59
:1006100098A3A9A3BAA320E030E04AE755E46F8D80
:1006200078A189A19AA10E946329DC01CB018BA347
:100630009CA3ADA3BEA320E030E040E85FE36BA144
:100640007CA18DA19EA10E94152888232CF481E015
:1006500090E098A78FA33FC020E03FEF4FE757E41B
:100660006BA17CA18DA19EA10E945F2918164CF55B
:1006700020E030E040E251E46F8D78A189A19AA199
:100680000E946329DC01CB01BC01CD010E948128BD
:10069000DC01CB0198A78FA30FC080E991E09AA756
:1006A00089A789A59AA50197F1F79AA789A78FA18C
:1006B00098A5019798A78FA38FA198A5892B69F773
:1006C00014C06BA17CA18DA19EA10E948128DC0198
:1006D000CB0198A78FA38FA198A59CA78BA78BA5CB
:1006E0009CA50197F1F79CA78BA7CE0185559F4F3D
:1006F000FC0180819181FC01808591850E94E80C3C
:10070000CE0185559F4FFC0180819181FC01828142
:1007100093810E94E80C0C94CE0BCE0185559F4F1F
:10072000FC0180819181FC01808591850E94E80C0B
:10073000CE0185559F4FFC0180819181FC01848110
:1007400095810E94E80C89819A81092E000CAA0BE0
:10075000BB0BBC01CD010E94AF28DC01CB018DA7F2
:100760009EA7AFA7B8AB20E030E04AE755E46DA5FF
:100770007EA58FA598A90E946329DC01CB0189ABD6
:100780009AABABABBCAB20E030E040E85FE369A9DB
:100790007AA98BA99CA90E94152888232CF481E0B2
:1007A00090E09EAB8DAB3FC020E03FEF4FE757E4BA
:1007B00069A97AA98BA99CA90E945F2918164CF5F2
:1007C00020E030E040E251E46DA57EA58FA598A918
:1007D0000E946329DC01CB01BC01CD010E9481286C
:1007E000DC01CB019EAB8DAB0FC080E991E098AFEF
:1007F0008FAB8FA998AD0197F1F798AF8FAB8DA90B
:100800009EA901979EAB8DAB8DA99EA9892B69F7F7
:1008100014C069A97AA98BA99CA90E948128DC012E
:10082000CB019EAB8DAB8DA99EA99AAF89AF89AD47
:100830009AAD0197F1F79AAF89AFCE0185559F4FD9
:10084000FC0180819181FC01808591850E94E80CEA
:10085000CE0185559F4FFC0180819181FC018481EF
:1008600095810E94E80C9AC7CE0185559F4FFC01E7
:1008700080819181FC01828593850E94E80CCE01E4
:1008800085559F4FFC0180819181FC018081918180
:100890000E94E80C89819A81092E000CAA0BBB0BDF
:1008A000BC01CD010E94AF28DC01CB018BAF9CAF16
:1008B000ADAFBEAF8E01015C1F4F20E030E04AE7D4
:1008C00055E46BAD7CAD8DAD9EAD0E946329DC011E
:1008D000CB01F80180839183A283B383CE01CF96AD
:1008E00020E030E040E85FE3FC01608171818281BB
:1008F00093810E94152888234CF4CE018D5B9F4F75
:1009000021E030E0FC013183208367C0CE01CF9627
:1009100020E03FEF4FE757E4FC0160817181828165
:1009200093810E945F2918160CF046C020E030E049
:1009300040E251E46BAD7CAD8DAD9EAD0E9463296C
:10094000DC01CB018E010D5B1F4FBC01CD010E946C
:100950008128DC01CB01F8019183808324C0CE0182
:100960008B5B9F4F20E931E0FC0131832083CE0176
:100970008B5B9F4FFC01808191810197F1F79E0174
:100980002B5B3F4FF90191838083CE018D5B9F4F9D
:100990009E012D5B3F4FF9012081318121503109AA
:1009A000FC0131832083CE018D5B9F4FFC01808150
:1009B0009181892BA1F62BC08E010D5B1F4FCE01BB
:1009C000CF96FC0160817181828193810E94812890
:1009D000DC01CB01F80191838083CE01895B9F4FBD
:1009E0009E012D5B3F4FF90120813181FC01318354
:1009F0002083CE01895B9F4FFC018081918101970B
:100A0000F1F79E01295B3F4FF90191838083CE016D
:100A100085559F4FFC0180819181FC0182859385E2
:100A2000D7D7CE0185559F4FFC0180819181FC0174
:100A300080819181CDD7B2C6CE0185559F4FFC01F3
:100A400080819181FC0182859385C2D7CE01855535
:100A50009F4FFC0180819181FC0182819381B8D7F5
:100A600089819A81092E000CAA0BBB0BBC01CD0118
:100A70000E94AF28DC01CB019E01275B3F4FF901AB
:100A800080839183A283B3838E01035B1F4FCE01CA
:100A9000875B9F4F20E030E04AE755E4FC0160812E
:100AA0007181828193810E946329DC01CB01F8016D
:100AB00080839183A283B383CE01835B9F4F20E029
:100AC00030E040E85FE3FC016081718182819381C5
:100AD0000E94152888234CF4CE018F5A9F4F21E0A5
:100AE00030E0FC01318320836DC0CE01835B9F4FDA
:100AF00020E03FEF4FE757E4FC0160817181828184
:100B000093810E945F2918160CF04AC0CE01875BC2
:100B10009F4F20E030E040E251E4FC0160817181B0
:100B2000828193810E946329DC01CB018E010F5ADF
:100B30001F4FBC01CD010E948128DC01CB01F801CF
:100B40009183808324C0CE018D5A9F4F20E931E0EC
:100B5000FC0131832083CE018D5A9F4FFC0180819F
:100B600091810197F1F79E012D5A3F4FF901918331
:100B70008083CE018F5A9F4F9E012F5A3F4FF9011C
:100B80002081318121503109FC0131832083CE0144
:100B90008F5A9F4FFC0180819181892BA1F62CC037
:100BA0008E010F5A1F4FCE01835B9F4FFC01608166
:100BB0007181828193810E948128DC01CB01F8013F
:100BC00091838083CE018B5A9F4F9E012F5A3F4FB6
:100BD000F90120813181FC0131832083CE018B5AC0
:100BE0009F4FFC01808191810197F1F79E012B5A63
:100BF0003F4FF90191838083CE0185559F4FFC01C2
:100C000080819181FC0182859385E2D6CE01855554
:100C10009F4FFC0180819181FC0182819381D8D614
:100C2000BDC5CE0185559F4FFC0180819181FC019E
:100C300082859385CDD6CE0185559F4FFC0180815D
:100C40009181FC0184819581C3D689819A81092E85
:100C5000000CAA0BBB0BBC01CD010E94AF28DC012C
:100C6000CB019E01295A3F4FF90180839183A283D2
:100C7000B3838E01055A1F4FCE01895A9F4F20E042
:100C800030E04AE755E4FC01608171818281938103
:100C90000E946329DC01CB01F80180839183A28348
:100CA000B383CE01855A9F4F20E030E040E85FE3F8
:100CB000FC0160817181828193810E9415288823C3
:100CC0004CF4CE01815A9F4F21E030E0FC0131838A
:100CD00020836DC0CE01855A9F4F20E03FEF4FE744
:100CE00057E4FC0160817181828193810E945F29B8
:100CF00018160CF04AC0CE01895A9F4F20E030E010
:100D000040E251E4FC0160817181828193810E9403
:100D10006329DC01CB018E01015A1F4FBC01CD01BB
:100D20000E948128DC01CB01F8019183808324C0DB
:100D3000CE018F599F4F20E931E0FC0131832083A0
:100D4000CE018F599F4FFC01808191810197F1F76E
:100D50009E012F593F4FF90191838083CE01815A23
:100D60009F4F9E01215A3F4FF9012081318121502F
:100D70003109FC0131832083CE01815A9F4FFC0150
:100D800080819181892BA1F62CC08E01015A1F4FC1
:100D9000CE01855A9F4FFC016081718182819381D0
:100DA0000E948128DC01CB01F80191838083CE0170
:100DB0008D599F4F9E01215A3F4FF901208131816A
:100DC000FC0131832083CE018D599F4FFC0180812E
:100DD00091810197F1F79E012D593F4FF9019183C0
:100DE0008083CE0185559F4FFC0180819181FC015C
:100DF00082859385EDD5CE0185559F4FFC0180817D
:100E00009181FC0184819581E3D5C8C4CE018555CB
:100E10009F4FFC0180819181FC0184859585D8D507
:100E2000CE0185559F4FFC0180819181FC0180811D
:100E30009181CED589819A81092E000CAA0BBB0B1A
:100E4000BC01CD010E94AF28DC01CB019E012B59D2
:100E50003F4FF90180839183A283B3838E010759A9
:100E60001F4FCE018B599F4F20E030E04AE755E4F9
:100E7000FC0160817181828193810E946329DC0180
:100E8000CB01F80180839183A283B383CE0187597C
:100E90009F4F20E030E040E85FE3FC01608171811A
:100EA000828193810E94152888234CF4CE018359B6
:100EB0009F4F21E030E0FC01318320836DC0CE01E3
:100EC00087599F4F20E03FEF4FE757E4FC016081D7
:100ED0007181828193810E945F2918160CF04AC0AB
:100EE000CE018B599F4F20E030E040E251E4FC01FD
:100EF00060817181828193810E946329DC01CB0131
:100F00008E0103591F4FBC01CD010E948128DC01D5
:100F1000CB01F8019183808324C0CE0181599F4F7A
:100F200020E931E0FC0131832083CE0181599F4FBC
:100F3000FC01808191810197F1F79E0121593F4F7A
:100F4000F90191838083CE0183599F4F9E012359DC
:100F50003F4FF9012081318121503109FC0131835A
:100F60002083CE0183599F4FFC0180819181892B81
:100F7000A1F62CC08E0103591F4FCE0187599F4FF8
:100F8000FC0160817181828193810E948128DC0152
:100F9000CB01F80191838083CE018F589F4F9E0132
:100FA00023593F4FF90120813181FC013183208396
:100FB000CE018F589F4FFC01808191810197F1F7FD
:100FC0009E012F583F4FF90191838083CE018555B3
:100FD0009F4FFC0180819181FC0184859585F8D427
:100FE000CE0185559F4FFC0180819181FC0180815C
:100FF0009181EED4D3C3CE0185559F4FFC018081F2
:101000009181FC0184859585E3D4CE0185559F4F60
:10101000FC0180819181FC0182819381D9D48981F5
:101020009A81092E000CAA0BBB0BBC01CD010E94BA
:10103000AF28DC01CB019E012D583F4FF901808381
:101040009183A283B3838E0109581F4FCE018D581F
:101050009F4F20E030E04AE755E4FC016081718158
:10106000828193810E946329DC01CB01F801808396
:101070009183A283B383CE0189589F4F20E030E053
:1010800040E85FE3FC0160817181828193810E946D
:10109000152888234CF4CE0185589F4F21E030E07D
:1010A000FC01318320836DC0CE0189589F4F20E021
:1010B0003FEF4FE757E4FC016081718182819381AA
:1010C0000E945F2918160CF04AC0CE018D589F4F20
:1010D00020E030E040E251E4FC01608171818281D6
:1010E00093810E946329DC01CB018E0105581F4FBB
:1010F000BC01CD010E948128DC01CB01F801918364
:10110000808324C0CE0183589F4F20E931E0FC0149
:1011100031832083CE0183589F4FFC0180819181D0
:101120000197F1F79E0123583F4FF9019183808386
:10113000CE0185589F4F9E0125583F4FF9012081D0
:10114000318121503109FC0131832083CE01855842
:101150009F4FFC0180819181892BA1F62CC08E01CB
:1011600005581F4FCE0189589F4FFC016081718146
:10117000828193810E948128DC01CB01F801918357
:101180008083CE0181589F4F9E0125583F4FF90122
:1011900020813181FC0131832083CE0181589F4F12
:1011A000FC01808191810197F1F79E0121583F4F09
:1011B000F90191838083CE0185559F4FFC01808189
:1011C0009181FC018485958503D4CE0185559F4F7F
:1011D000FC0180819181FC0182819381F9D3DEC27F
:1011E000CE0185559F4FFC0180819181FC01848552
:1011F0009585EED3CE0185559F4FFC01808191816D
:10120000FC0184819581E4D389819A81092E000CA7
:10121000AA0BBB0BBC01CD010E94AF28DC01CB01A6
:101220009E012F573F4FF90180839183A283B3839F
:101230008E010B571F4FCE018F579F4F20E030E09C
:101240004AE755E4FC0160817181828193810E94AB
:101250006329DC01CB01F80180839183A283B383EE
:10126000CE018B579F4F20E030E040E85FE3FC0168
:1012700060817181828193810E94152888234CF4BA
:10128000CE0187579F4F21E030E0FC01318320835E
:101290006DC0CE018B579F4F20E03FEF4FE757E4E3
:1012A000FC0160817181828193810E945F291816FF
:1012B0000CF04AC0CE018F579F4F20E030E040E253
:1012C00051E4FC0160817181828193810E946329D4
:1012D000DC01CB018E0107571F4FBC01CD010E94DD
:1012E0008128DC01CB01F8019183808324C0CE01E9
:1012F00085579F4F20E931E0FC0131832083CE01E7
:1013000085579F4FFC01808191810197F1F79E01E4
:1013100025573F4FF90191838083CE0187579F4F17
:101320009E0127573F4FF90120813181215031091A
:10133000FC0131832083CE0187579F4FFC018081C0
:101340009181892BA1F62CC08E0107571F4FCE012A
:101350008B579F4FFC0160817181828193810E9434
:101360008128DC01CB01F80191838083CE01835772
:101370009F4F9E0127573F4FF90120813181FC018A
:1013800031832083CE0183579F4FFC01808191815F
:101390000197F1F79E0123573F4FF9019183808315
:1013A000CE0185559F4FFC0180819181FC01848590
:1013B00095850ED3CE0185559F4FFC01808191818B
:1013C000FC018481958104D3E9C1CE0185559F4FED
:1013D000FC0180819181FC0186859785F9D2CE013F
:1013E00085559F4FFC0180819181FC018081918115
:1013F000EFD289819A81092E000CAA0BBB0BBC018C
:10140000CD010E94AF28DC01CB019E0121573F4F47
:10141000F90180839183A283B3838E010D561F4F00
:10142000CE0181579F4F20E030E04AE755E4FC01B0
:1014300060817181828193810E946329DC01CB01EB
:10144000F80180839183A283B383CE018D569F4F91
:1014500020E030E040E85FE3FC016081718182813F
:1014600093810E94152888234CF4CE0189569F4F02
:1014700021E030E0FC01318320836DC0CE018D5628
:101480009F4F20E03FEF4FE757E4FC0160817181FF
:10149000828193810E945F2918160CF04AC0CE0108
:1014A00081579F4F20E030E040E251E4FC01608131
:1014B0007181828193810E946329DC01CB018E01BD
:1014C00009561F4FBC01CD010E948128DC01CB01D0
:1014D000F8019183808324C0CE0187569F4F20E975
:1014E00031E0FC0131832083CE0187569F4FFC0100
:1014F000808191810197F1F79E0127563F4FF901B5
:1015000091838083CE0189569F4F9E0129563F4F7C
:10151000F9012081318121503109FC01318320837F
:10152000CE0189569F4FFC0180819181892BA1F6C4
:101530002CC08E0109561F4FCE018D569F4FFC01C6
:1015400060817181828193810E948128DC01CB01BD
:10155000F80191838083CE0185569F4F9E012956C5
:101560003F4FF90120813181FC0131832083CE017D
:1015700085569F4FFC01808191810197F1F79E0173
:1015800025563F4FF90191838083CE0185559F4FAA
:10159000FC0180819181FC018685978519D2CE015D
:1015A00085559F4FFC0180819181FC018081918153
:1015B0000FD2F4C0CE0185559F4FFC0180819181EF
:1015C000FC018685978504D2CE0185559F4FFC018D
:1015D00080819181FC0184819581FAD189819A81F0
:1015E000092E000CAA0BBB0BBC01CD010E94AF2839
:1015F000DC01CB019E0123563F4FF901808391838B
:10160000A283B3838E010F551F4FCE0183569F4F88
:1016100020E030E04AE755E4FC016081718182817D
:1016200093810E946329DC01CB01F80180839183BF
:10163000A283B383CE018F559F4F20E030E040E876
:101640005FE3FC0160817181828193810E94152892
:1016500088234CF4CE018B559F4F21E030E0FC01F4
:10166000318320836DC0CE018F559F4F20E03FEF27
:101670004FE757E4FC0160817181828193810E9470
:101680005F2918160CF04AC0CE0183569F4F20E008
:1016900030E040E251E4FC016081718182819381FC
:1016A0000E946329DC01CB018E010B551F4FBC0149
:1016B000CD010E948128DC01CB01F8019183808358
:1016C00024C0CE0189559F4F20E931E0FC013183D0
:1016D0002083CE0189559F4FFC0180819181019724
:1016E000F1F79E0129553F4FF90191838083CE0187
:1016F0008B559F4F9E012B553F4FF9012081318122
:1017000021503109FC0131832083CE018B559F4F3D
:10171000FC0180819181892BA1F62CC08E010B5593
:101720001F4FCE018F559F4FFC01608171818281D7
:1017300093810E948128DC01CB01F8019183808391
:10174000CE0187559F4F9E012B553F4FF9012081B8
:101750003181FC0131832083CE0187559F4FFC01ED
:10176000808191810197F1F79E0127553F4FF90143
:1017700091838083CE0185559F4FFC0180819181AB
:10178000FC018685978524D1CE0185559F4FFC01AC
:1017900080819181FC01848195811AD1C355DF4FED
:1017A0000FB6F894DEBF0FBECDBFDF91CF911F9172
:1017B0000F910895CF93DF9300D01F92CDB7DEB77E
:1017C0009A8389837C836B838B819C810E94C62949
:1017D0000F900F900F900F90DF91CF910895CF93BE
:1017E000DF9300D000D0CDB7DEB79C838B837E83A0
:1017F0006D838D819E819A8389830EC0CE010C9664
:1018000033D0282F89819A81622F0E94CE29898125
:101810009A8101969A838983CE010C960ED0982FD7
:1018200081E08927882351F726960FB6F894DEBF0A
:101830000FBECDBFDF91CF910895CF93DF931F925D
:101840001F92CDB7DEB79A83898389819A81FC0183
:101850008685978521E0892B09F020E0822F0F9063
:101860000F90DF91CF910895CF93DF9300D0CDB744
:10187000DEB79B838A838A819B81FC018285938565
:101880002A813B81820F931FFC01808189838A8199
:101890009B81FC01868597859C01215031098A81B5
:1018A0009B81FC01378726878A819B81FC01828589
:1018B00093859C012F5F3F4F8A819B81FC01338779
:1018C00022878A819B81FC01828593850A9729F46E
:1018D0008A819B81FC011386128689810F900F906B
:1018E0000F90DF91CF910895CF93DF9300D01F9297
:1018F000CDB7DEB79A8389836B834C838B81882F26
:1019000090E0845C9C4FFC01208189819A81FC01DC
:1019100020838B81882F90E08A509D4FFC0180812D
:10192000882F90E0880F991F80509E4FFC012081E6
:10193000318189819A81FC013283218321E08C816C
:10194000882309F420E089819A81FC013081898112
:101950009A81FC0181819281422F632F51D00F9097
:101960000F900F900F90DF91CF910895CF93DF9359
:101970001F921F92CDB7DEB79A83898389819A819E
:10198000FC01208189819A81FC0181819281622FF1
:1019900091D00F900F90DF91CF910895CF93DF9367
:1019A00000D0CDB7DEB79A8389836B8389819A8112
:1019B000FC01208189819A81FC01818192814B8186
:1019C000622F4BD00F900F900F90DF91CF91089521
:1019D000CF93DF931F921F92CDB7DEB79A8389838F
:1019E00089819A81FC01208189819A81FC01818110
:1019F0009281622F77D00F900F90DF91CF91089551
:101A0000CF93DF9300D01F92CDB7DEB79A8389833F
:101A10006B834C838C81882361F089819A81FC01DE
:101A200091818B81292F282B89819A81FC01218327
:101A30000DC089819A81FC018181982F8B818095CD
:101A40008923282F89819A81FC0121830F900F908F
:101A50000F900F90DF91CF910895CF93DF9300D037
:101A60001F92CDB7DEB79A8389836B834C838C81B9
:101A7000882361F089819A81FC0192818B81292FD1
:101A8000282B89819A81FC0122830DC089819A814A
:101A9000FC018281982F8B8180958923282F898151
:101AA0009A81FC0122830F900F900F900F90DF918D
:101AB000CF910895CF93DF9300D0CDB7DEB79A834F
:101AC00089836B8389819A81FC0190818B81982322
:101AD00081E0992309F480E00F900F900F90DF913F
:101AE000CF910895CF93DF9300D0CDB7DEB79A831F
:101AF00089836B8389819A812B81FC0120830F90DC
:101B00000F900F90DF91CF9108958F929F92AF9297
:101B1000BF92CF92DF92EF92FF920F931F93CF93DA
:101B2000DF93CDB7DEB762970FB6F894DEBF0FBE76
:101B3000CDBF9A8389837C836B835E834D83388793
:101B40002F831A870987FC86EB86DE86CD86B88AC6
:101B5000AF869A8A898A89819A812EE4FC01208342
:101B600089819A812B813C81FC0132832183898187
:101B70009A812D813E81FC013483238389819A815E
:101B80002F813885FC013683258389819A812985B7
:101B90003A85FC013087278389819A812B853C8592
:101BA000FC013287218789819A812D853E85FC0140
:101BB0003487238789819A812F853889FC0136876C
:101BC000258789819A8129893A89FC01308B278769
:101BD00062960FB6F894DEBF0FBECDBFDF91CF91F6
:101BE0001F910F91FF90EF90DF90CF90BF90AF903B
:101BF0009F908F900895CF93DF93CDB7DEB7639713
:101C00000FB6F894DEBF0FBECDBF9B8B8A8B81E0F1
:101C100089831B821A8297C08A899B89FC018181F2
:101C2000928160E0BBDE8A899B89FC01838194817B
:101C300060E0B4DE8A899B89FC018581968160E041
:101C4000ADDE8A899B89FC018781908560E0A6DEF4
:101C50002A893B898A819B81880F991F820F931F54
:101C60000196FC018081918161E098DE8A899B89DF
:101C7000FC01818592857ADE882391F02A813B815F
:101C80008A899B8940E050E0B901EFD000008A8941
:101C90009B89FC018185928569DE8823C1F71982C1
:101CA0008A899B89FC018385948560DE882391F075
:101CB0002A813B818A899B8941E050E0B901D5D0D6
:101CC00000008A899B89FC01838594854FDE8823E7
:101CD000C1F719828A899B89FC018585968546DE34
:101CE000882391F02A813B818A899B8942E050E0D8
:101CF000B901BBD000008A899B89FC018585968546
:101D000035DE8823C1F719828A899B89FC01878582
:101D100090892CDE882391F02A813B818A899B89D6
:101D200043E050E0B901A1D000008A899B89FC0101
:101D3000878590891BDE8823C1F719828A819B8160
:101D400001969B838A838A819B8104970CF464CFDC
:101D500080E090E0A0E2B1E48C839D83AE83BF83FA
:101D600020E030E04AE755E46C817D818E819F81DF
:101D70000E946329DC01CB0188879987AA87BB87EA
:101D800020E030E040E85FE3688579858A859B85BF
:101D90000E94152888232CF481E090E09D878C8791
:101DA0003FC020E03FEF4FE757E4688579858A859B
:101DB0009B850E945F2918164CF520E030E040E238
:101DC00051E46C817D818E819F810E946329DC01B9
:101DD000CB01BC01CD010E948128DC01CB019D8794
:101DE0008C870FC080E991E09F878E878E859F85C5
:101DF0000197F1F79F878E878C859D8501979D8739
:101E00008C878C859D85892B69F714C068857985B9
:101E10008A859B850E948128DC01CB019D878C8768
:101E20008C859D85998B888B888999890197F1F795
:101E3000998B888B898163960FB6F894DEBF0FBEAD
:101E4000CDBFDF91CF910895CF93DF931F921F9263
:101E5000CDB7DEB79A83898389819A81FC0180811D
:101E60000F900F90DF91CF910895CF93DF93CDB76F
:101E7000DEB766970FB6F894DEBF0FBECDBF9A8B64
:101E8000898B7C8B6B8B5E8B4D8B20E1EEE1F2E0DE
:101E9000CE010196DC0101900D922A95E1F78B8924
:101EA0009C899C01220F331F220F331F8D899E892D
:101EB000820F931F9E012F5F3F4F820F931FFC01E4
:101EC000208189899A89FC01208366960FB6F8944F
:101ED000DEBF0FBECDBFDF91CF910895CF93DF93CB
:101EE0001F921F92CDB7DEB79A8389830F900F9010
:101EF000DF91CF910895CF93DF93CDB7DEB7E19710
:101F00000FB6F894DEBF0FBECDBF98AB8FA769ABFD
:101F100081E390E029A9FC01208388E290E028E297
:101F200030E0F90120812E7FFC01208388E290E0DF
:101F300028E230E0F90120812D7FFC01208388E236
:101F400090E028E230E0F90120812460FC01208348
:101F500080E090E0A0E8BFE389839A83AB83BC83F1
:101F60002BEA3AEA4AEA50E469817A818B819C81C2
:101F70000E946329DC01CB018D839E83AF83B887E8
:101F800020E030E040E850E469817A818B819C81D7
:101F90000E946329DC01CB0189879A87AB87BC87C4
:101FA00020E030E040E85FE36D817E818F8198859D
:101FB0000E94152888231CF481E08D87B2C020E0A0
:101FC0003FEF4FE757E469857A858B859C850E94B2
:101FD0005F2918160CF07BC020E030E04AE754E49B
:101FE00069817A818B819C810E941928DC01CB0157
:101FF0008E879F87A88BB98B20E030E04AE755E4B5
:102000006E857F85888999890E946329DC01CB01CF
:102010008A8B9B8BAC8BBD8B20E030E040E85FE38C
:102020006A897B898C899D890E94152888232CF4D4
:1020300081E090E09F8B8E8B3FC020E03FEF4FE729
:1020400057E46A897B898C899D890E945F291816CB
:102050004CF520E030E040E251E46E857F858889D0
:1020600099890E946329DC01CB01BC01CD010E944A
:102070008128DC01CB019F8B8E8B0FC080E991E022
:10208000998F888F888D998D0197F1F7998F888F17
:102090008E899F8901979F8B8E8B8E899F89892B33
:1020A00069F73FC06A897B898C899D890E94812854
:1020B000DC01CB019F8B8E8B8E899F899B8F8A8FB2
:1020C0008A8D9B8D0197F1F79B8F8A8F2AC020E024
:1020D00030E04FE753E46D817E818F8198850E94C7
:1020E0005F291816ACF469857A858B859C850E94DA
:1020F0008128DC01CB019D8F8C8F8C8D9D8D9F8FD6
:102100008E8F8E8D9F8D0197F1F79F8F8E8F0FC0D1
:102110006D817E818F8198850E948128DC01CB01B1
:102120008D878D8588A388A18A95F1F788A388E299
:1021300090E028E230E0F90120812B7FFC01208330
:1021400080E090E0A0E4B0E489A39AA3ABA3BCA391
:1021500020E030E04AE755E469A17AA18BA19CA177
:102160000E946329DC01CB018DA39EA3AFA3B8A776
:1021700020E030E040E85FE36DA17EA18FA198A54B
:102180000E94152888232CF481E090E09AA789A763
:102190003FC020E03FEF4FE757E46DA17EA18FA144
:1021A00098A50E945F2918164CF520E030E040E227
:1021B00051E469A17AA18BA19CA10E946329DC0151
:1021C000CB01BC01CD010E948128DC01CB019AA783
:1021D00089A70FC080E991E09CA78BA78BA59CA540
:1021E0000197F1F79CA78BA789A59AA501979AA7B4
:1021F00089A789A59AA5892B69F714C06DA17EA12D
:102200008FA198A50E948128DC01CB019AA789A7FC
:1022100089A59AA59EA78DA78DA59EA50197F1F7E3
:102220009EA78DA7E1960FB6F894DEBF0FBECDBF77
:10223000DF91CF910895CF93DF93CDB7DEB7E197CC
:102240000FB6F894DEBF0FBECDBF98AB8FA769ABBA
:1022500081E390E029A9FC01208388E290E028E254
:1022600030E0F90120812160FC01208388E290E0C8
:1022700028E230E0F90120812D7FFC01208388E2F3
:1022800090E028E230E0F90120812460FC01208305
:1022900080E090E0A0E8BFE389839A83AB83BC83AE
:1022A0002BEA3AEA4AEA50E469817A818B819C817F
:1022B0000E946329DC01CB018D839E83AF83B887A5
:1022C00020E030E040E850E469817A818B819C8194
:1022D0000E946329DC01CB0189879A87AB87BC8781
:1022E00020E030E040E85FE36D817E818F8198855A
:1022F0000E94152888231CF481E08D87B2C020E05D
:102300003FEF4FE757E469857A858B859C850E946E
:102310005F2918160CF07BC020E030E04AE754E457
:1023200069817A818B819C810E941928DC01CB0113
:102330008E879F87A88BB98B20E030E04AE755E471
:102340006E857F85888999890E946329DC01CB018C
:102350008A8B9B8BAC8BBD8B20E030E040E85FE349
:102360006A897B898C899D890E94152888232CF491
:1023700081E090E09F8B8E8B3FC020E03FEF4FE7E6
:1023800057E46A897B898C899D890E945F29181688
:102390004CF520E030E040E251E46E857F8588898D
:1023A00099890E946329DC01CB01BC01CD010E9407
:1023B0008128DC01CB019F8B8E8B0FC080E991E0DF
:1023C000998F888F888D998D0197F1F7998F888FD4
:1023D0008E899F8901979F8B8E8B8E899F89892BF0
:1023E00069F73FC06A897B898C899D890E94812811
:1023F000DC01CB019F8B8E8B8E899F899B8F8A8F6F
:102400008A8D9B8D0197F1F79B8F8A8F2AC020E0E0
:1024100030E04FE753E46D817E818F8198850E9483
:102420005F291816ACF469857A858B859C850E9496
:102430008128DC01CB019D8F8C8F8C8D9D8D9F8F92
:102440008E8F8E8D9F8D0197F1F79F8F8E8F0FC08E
:102450006D817E818F8198850E948128DC01CB016E
:102460008D878D8588A388A18A95F1F788A388E256
:1024700090E028E230E0F90120812B7FFC012083ED
:1024800080E090E0A0E8BFE389A39AA3ABA3BCA33C
:1024900020E030E04AE755E469A17AA18BA19CA134
:1024A0000E946329DC01CB018DA39EA3AFA3B8A733
:1024B00020E030E040E85FE36DA17EA18FA198A508
:1024C0000E94152888232CF481E090E09AA789A720
:1024D0003FC020E03FEF4FE757E46DA17EA18FA101
:1024E00098A50E945F2918164CF520E030E040E2E4
:1024F00051E469A17AA18BA19CA10E946329DC010E
:10250000CB01BC01CD010E948128DC01CB019AA73F
:1025100089A70FC080E991E09CA78BA78BA59CA5FC
:102520000197F1F79CA78BA789A59AA501979AA770
:1025300089A789A59AA5892B69F714C06DA17EA1E9
:102540008FA198A50E948128DC01CB019AA789A7B9
:1025500089A59AA59EA78DA78DA59EA50197F1F7A0
:102560009EA78DA7E1960FB6F894DEBF0FBECDBF34
:10257000DF91CF910895CF93DF93CDB7DEB760970A
:102580000FB6F894DEBF0FBECDBF988B8F8787E262
:1025900090E02FEFFC01208380E390E02FEFFC011F
:1025A000208380E090E0A0EAB1E489839A83AB8342
:1025B000BC8320E030E04AE755E469817A818B8171
:1025C0009C810E946329DC01CB018D839E83AF83B4
:1025D000B88720E030E040E85FE36D817E818F8145
:1025E00098850E94152888232CF481E090E09A8732
:1025F00089873FC020E03FEF4FE757E46D817E8140
:102600008F8198850E945F2918164CF520E030E0F4
:1026100040E251E469817A818B819C810E94632927
:10262000DC01CB01BC01CD010E948128DC01CB0182
:102630009A8789870FC080E991E09C878B878B857B
:102640009C850197F1F79C878B8789859A850197EF
:102650009A87898789859A85892B69F714C06D8146
:102660007E818F8198850E948128DC01CB019A8729
:10267000898789859A859E878D878D859E85019717
:10268000F1F79E878D878F85988968E334DC8F8585
:1026900098896CE030DC8F85988966E02CDC8F852A
:1026A000988961E028DC8F85988960E824DC609651
:1026B0000FB6F894DEBF0FBECDBFDF91CF91089566
:1026C000CF93DF9300D000D0CDB7DEB79C838B8350
:1026D0007E836D831A82198211C089819A812D812E
:1026E0003E81820F931FFC0120818B819C81622F90
:1026F000A2DD89819A8101969A83898389819A8151
:102700002D813E81820F931FFC018081882329F750
:1027100026960FB6F894DEBF0FBECDBFDF91CF91E6
:102720000895CF93DF931F921F92CDB7DEB79A83A0
:10273000898389819A8161E0DEDB89819A8160E801
:10274000DADB0F900F90DF91CF910895CF93DF9355
:102750001F921F92CDB7DEB79A8389830F900F9097
:10276000DF91CF910895CF93DF931F921F92CDB742
:10277000DEB79A8389830F900F90DF91CF910895F0
:10278000CF93DF93CDB7DEB7A3970FB6F894DEBF34
:102790000FBECDBF9BA38AA3CE01CC96C2DFCE01D4
:1027A000CC966EE272E08CDFCE01CC9660ECA3DBBF
:1027B0001A8219828EE68B83CE0142960E94DC2318
:1027C0008BC072C080E090E0A0EAB1E48C839D836E
:1027D000AE83BF8320E030E04AE755E46C817D8121
:1027E0008E819F810E946329DC01CB0188879987B4
:1027F000AA87BB8720E030E040E85FE36885798501
:102800008A859B850E94152888232CF481E090E01E
:102810009D878C873FC020E03FEF4FE757E46885F6
:1028200079858A859B850E945F2918164CF520E0E2
:1028300030E040E251E46C817D818E819F810E9475
:102840006329DC01CB01BC01CD010E948128DC01A0
:10285000CB019D878C870FC080E991E09F878E8791
:102860008E859F850197F1F79F878E878C859D8543
:1028700001979D878C878C859D85892B69F714C06E
:10288000688579858A859B850E948128DC01CB013A
:102890009D878C878C859D85998B888B8889998964
:1028A0000197F1F7998B888BCE018996A4D988235B
:1028B00009F088CF89819A8101969A838983CE0114
:1028C0008996C2DA8B83CE0142966B810E94F823EF
:1028D000CE01CC966B81AFDC89819A8109970CF48B
:1028E00070CF4AA15BA12AAD3BAD8DB79EB7409793
:1028F0000FB6F8949EBF0FBE8DBF8DB79EB70196E1
:1029000060E1FE017296DC0101900D926A95E1F79B
:10291000BA01C9010E94EF0B8DB79EB740960FB662
:10292000F894DEBF0FBECDBFCE01CC96FADEA396E3
:102930000FB6F894DEBF0FBECDBFDF91CF910895E3
:102940006F927F928F929F92AF92BF92CF92DF92BF
:10295000EF92FF920F931F93CF93DF93CDB7DEB724
:10296000C959D1400FB6F894DEBF0FBECDBFCE011E
:102970008C529F4F41E06BE00E94740CCE01895253
:102980009F4F41E06AE00E94740CCE0186529F4F37
:1029900041E069E00E94740CCE0183529F4F41E0F8
:1029A00068E00E94740CCE0180529F4F40E067E0C7
:1029B0000E94740CCE018D519F4F40E066E00E9452
:1029C000740CCE018A519F4F40E065E00E94740C68
:1029D000CE0187519F4F40E064E00E94740CCE010D
:1029E00084519F4F41E06DE10E94740CCE018151F2
:1029F0009F4F41E067E10E94740CCE018E509F4FC3
:102A000041E069E10E94740CCE018B509F4F41E080
:102A10006BE10E94740CCE0188509F4F41E06AE147
:102A20000E94740CCE0185509F4F41E068E10E94E6
:102A3000740CCE0182509F4F41E066E10E94740CFD
:102A4000CE018F5F9E4F41E06CE10E94740CCE017D
:102A50008C5F9E4F41E06DE00E94740C81E090E03D
:102A60009A83898318A21F8E8EE689A3CE01885887
:102A70009E4F6894AA24A3F8C12C0F2EF6E0EF2EE7
:102A8000F02D00E020E835E240E050E060E00E94F8
:102A900038246E0181E0C80ED81E7E019EEFE90E3B
:102AA000F11C8E0105501F4FDE01A850BF4FFE01E3
:102AB000EB50FF4F9E012E503F4FAE0141515F4FF3
:102AC000BE0164517F4FCE01895F9E4F4601570181
:102AD00068017D018F010E94AB006E01E9EECE0E10
:102AE000D11C7E01F6EEEF0EF11C8E010D511F4F31
:102AF000DE01A052BF4FFE01E352FF4F9E0126525E
:102B00003F4FAE0149525F4FBE016C527F4FCE0125
:102B1000895E9E4F4601570168017D018F010E9429
:102B2000850DCE01885D9E4FD9D9CE01875D9E4F20
:102B30000DDE1BA21AA28AA19BA10A969DA38CA3BB
:102B40008AA19BA144969FA38EA3CE01865D9E4F32
:102B50000E94DC23CE01865C9E4F0E94DC23CE01C6
:102B6000865B9E4F0E94DC23CE01865A9E4F2AE050
:102B7000E2EEF2E0DC0101900D922A95E1F71C8271
:102B80001B8214C09E01265A3E4F8B819C81820F6E
:102B9000931FFC012081CE01865D9E4F622F0E9413
:102BA000F8238B819C8101969C838B838B819C81F4
:102BB0000A9740F3CE018C599E4F2AE0ECEEF2E0EA
:102BC000DC0101900D922A95E1F71E821D8214C04E
:102BD0009E012C593E4F8D819E81820F931FFC01D7
:102BE0002081CE01865C9E4F622F0E94F8238D814A
:102BF0009E8101969E838D838D819E810A9740F3ED
:102C0000CE0182599E4F2AE0ECEEF2E0DC01019009
:102C10000D922A95E1F718861F8214C09E01225951
:102C20003E4F8F819885820F931FFC012081CE013A
:102C3000865B9E4F622F0E94F8238F8198850196B4
:102C400098878F838F8198850A9740F36AA17BA12B
:102C5000AE01475D5E4F9E01265D3E4F8DB79EB72C
:102C600040970FB6F8949EBF0FBE8DBF8DB79EB72D
:102C7000019610E1F901DC0101900D921A95E1F73E
:102C8000CA010E94EF0BEDB7FEB770960FB6F8942D
:102C9000DEBF0FBECDBF7894CE01885D9E4F6BDC4A
:102CA0001A8619861C861B8689819A81019709F0EC
:102CB000DDC089859A85892BD1F4CE01885D9E4F30
:102CC00030DDCE01885D9E4F6BE372E0F9DCCE0112
:102CD000885D9E4F60EC0FD9CE01885D9E4F6CE4FD
:102CE00072E0EEDC89859A8501969A87898777C09C
:102CF000CE018C5F9E4F0E94E80C80E090E0A0EA3D
:102D0000B1E48AA79BA7ACA7BDA720E030E04AE7C3
:102D100055E46AA57BA58CA59DA50E946329DC01CD
:102D2000CB018EA79FA7A8ABB9AB20E030E040E86D
:102D30005FE36EA57FA588A999A90E94152888231D
:102D40002CF481E090E09BAB8AAB3FC020E03FEFEA
:102D50004FE757E46EA57FA588A999A90E945F292E
:102D600018164CF520E030E040E251E46AA57BA55E
:102D70008CA59DA50E946329DC01CB01BC01CD017E
:102D80000E948128DC01CB019BAB8AAB0FC080E99C
:102D900091E09DAB8CAB8CA99DA90197F1F79DAB00
:102DA0008CAB8AA99BA901979BAB8AAB8AA99BA9EB
:102DB000892B69F714C06EA57FA588A999A90E94DF
:102DC0008128DC01CB019BAB8AAB8AA99BA99FAB75
:102DD0008EAB8EA99FA90197F1F79FAB8EABCE0169
:102DE000895E9E4F0E94FB0D882309F081CFCE01A2
:102DF000895E9E4F29D889A389A1882F90E08234CB
:102E00009105B1F08334910509F18134910511F0F8
:102E10000C94DA2382E090E09A838983CE0188586B
:102E20009E4F6DE572E00E94B4241A8619861CC07C
:102E300083E090E09A838983CE0188589E4F65E6AF
:102E400072E00E94B4241A8619860EC084E090E0D5
:102E50009A838983CE0188589E4F6FE672E00E9464
:102E6000B4241A86198600000C94DA2389819A8189
:102E7000029709F060C189859A85892BA1F4CE015A
:102E8000885D9E4F4EDCCE01885D9E4F69E772E003
:102E900017DCCE01885D9E4F60EC2DD889859A8520
:102EA00001969A8789878EE689A3ADC0CE018C5F93
:102EB0009E4F0E94E80C80E090E0A0EAB1E488AF69
:102EC00099AFAAAFBBAF20E030E04AE755E468AD68
:102ED00079AD8AAD9BAD0E946329DC01CB018CAF3B
:102EE0009DAFAEAFBFAF20E030E040E85FE36CAD38
:102EF0007DAD8EAD9FAD0E94152888234CF4CE0188
:102F0000805C9F4F21E030E0FC013183208361C071
:102F100020E03FEF4FE757E46CAD7DAD8EAD9FAD48
:102F20000E945F2918160CF046C020E030E040E215
:102F300051E468AD79AD8AAD9BAD0E946329DC0197
:102F4000CB018E01005C1F4FBC01CD010E94812886
:102F5000DC01CB01F8019183808324C0CE018E5B1C
:102F60009F4F20E931E0FC0131832083CE018E5B4D
:102F70009F4FFC01808191810197F1F79E012E5BAB
:102F80003F4FF90191838083CE01805C9F4F9E016A
:102F9000205C3F4FF9012081318121503109FC0132
:102FA00031832083CE01805C9F4FFC018081918121
:102FB000892BA1F628C08E01005C1F4F6CAD7DAD42
:102FC0008EAD9FAD0E948128DC01CB01F801918379
:102FD0008083CE018C5B9F4F9E01205C3F4FF901A7
:102FE00020813181FC0131832083CE018C5B9F4F96
:102FF000FC01808191810197F1F79E012C5B3F4F8D
:10300000F90191838083CE01895E9E4F0E94FB0D62
:10301000882309F04BCFCE01895E9E4F0E94240F7A
:1030200089A389A18A3211F189A18332F9F089A19A
:103030008033E1F089A18133C9F089A18233B1F0F5
:1030400089A1833399F089A1843381F089A18533E3
:1030500069F089A1863351F089A1873339F089A1BC
:10306000883321F089A1893309F04DC08B859C8577
:103070000997F4F4CE01885D9E4F69A1DCD8CE019A
:10308000895F9E4F69A10E945C01CE0188589E4FC6
:103090006AE872E00E94B424CE0188589E4F69A16C
:1030A0000E9492248B859C8501969C878B8741C0CA
:1030B000CE01885D9E4F35DBCE01885D9E4F69E76E
:1030C00072E0FEDACE01885D9E4F60EC0E947B0FBD
:1030D000CE01885D9E4F69A1AED8CE01895F9E4F1B
:1030E00069A10E945C01CE0188589E4F6AE872E097
:1030F0000E94B424CE0188589E4F69A10E94922458
:103100001C861B8616C089A1843411F00C94DA2326
:1031100081E090E09A838983CE0188589E4F63E9CD
:1031200072E00E94B4241A8619861C861B860C94B1
:10313000DA230C94DA2389819A81039709F0A7C3D3
:1031400019A618A688A599A50A969E878D8788A591
:1031500099A54496988B8F8789859A85892B09F044
:103160002EC2CE01885D9E4FDCDACE01885D9E4F77
:103170006EE972E0A5DA2D853E85CE01875D9E4F12
:10318000B9010E94DA0B982F81E0953609F480E0AE
:10319000882309F4EFC0CE01885D9E4F63EA72E098
:1031A0008FDA198AE0C02D853E85CE01875D9E4F5E
:1031B000B9010E94DA0B89A3CE0188589E4F69A1FC
:1031C0000E949224CE01885D9E4F69A134D88D85DE
:1031D0009E8501969E878D879E012A5B3F4F80E0EA
:1031E00090E0AAEFB3E4F90180839183A283B383D3
:1031F0008E01065B1F4FCE018A5B9F4F20E030E0BF
:103200004AE755E4FC0160817181828193810E94CB
:103210006329DC01CB01F80180839183A283B3830E
:10322000CE01865B9F4F20E030E040E85FE3FC0189
:1032300060817181828193810E94152888234CF4DA
:10324000CE01825B9F4F21E030E0FC01318320837F
:103250006DC0CE01865B9F4F20E03FEF4FE757E404
:10326000FC0160817181828193810E945F2918161F
:103270000CF04AC0CE018A5B9F4F20E030E040E274
:1032800051E4FC0160817181828193810E946329F4
:10329000DC01CB018E01025B1F4FBC01CD010E94FE
:1032A0008128DC01CB01F8019183808324C0CE0109
:1032B000805B9F4F20E931E0FC0131832083CE0108
:1032C000805B9F4FFC01808191810197F1F79E0106
:1032D000205B3F4FF90191838083CE01825B9F4F3A
:1032E0009E01225B3F4FF90120813181215031093C
:1032F000FC0131832083CE01825B9F4FFC018081E2
:103300009181892BA1F62CC08E01025B1F4FCE014B
:10331000865B9F4FFC0160817181828193810E9455
:103320008128DC01CB01F80191838083CE018E5A84
:103330009F4F9E01225B3F4FF90120813181FC01AB
:1033400031832083CE018E5A9F4FFC018081918171
:103350000197F1F79E012E5A3F4FF9019183808327
:1033600089898F5F898B8989893008F41CCF19A6D8
:1033700018A608C0CE01885D9E4F66EA72E0A0D90B
:1033800018A21F8E2F853889CE01875D9E4FB90107
:103390000E94DA0B982F81E0953609F480E08823AB
:1033A00009F4F6C0CE01885D9E4F60EC0E947B0F51
:1033B000CE01885D9E4F6DEA72E082D91A8AE1C023
:1033C0002F853889CE01875D9E4FB9010E94DA0BA7
:1033D00089A3CE0188589E4F69A10E949224CE01F4
:1033E000885D9E4F69A10E941B118F859889019667
:1033F000988B8F879E012C5A3F4F80E090E0AAEF78
:10340000B3E4F90180839183A283B3838E01085AC8
:103410001F4FCE018C5A9F4F20E030E04AE755E421
:10342000FC0160817181828193810E946329DC01AA
:10343000CB01F80180839183A283B383CE01885AA4
:103440009F4F20E030E040E85FE3FC016081718144
:10345000828193810E94152888234CF4CE01845ADE
:103460009F4F21E030E0FC01318320836DC0CE010D
:10347000885A9F4F20E03FEF4FE757E4FC016081FF
:103480007181828193810E945F2918160CF04AC0D5
:10349000CE018C5A9F4F20E030E040E251E4FC0125
:1034A00060817181828193810E946329DC01CB015B
:1034B0008E01045A1F4FBC01CD010E948128DC01FE
:1034C000CB01F8019183808324C0CE01825A9F4FA3
:1034D00020E931E0FC0131832083CE01825A9F4FE5
:1034E000FC01808191810197F1F79E01225A3F4FA3
:1034F000F90191838083CE01845A9F4F9E01245A03
:103500003F4FF9012081318121503109FC01318384
:103510002083CE01845A9F4FFC0180819181892BA9
:10352000A1F62CC08E01045A1F4FCE01885A9F4F1E
:10353000FC0160817181828193810E948128DC017C
:10354000CB01F80191838083CE01805A9F4F9E0169
:10355000245A3F4FF90120813181FC0131832083BE
:10356000CE01805A9F4FFC01808191810197F1F734
:103570009E01205A3F4FF901918380838A898F5F92
:103580008A8B8A89893008F41BCF19A618A60CC02B
:10359000CE01885D9E4F60EC0E947B0FCE01885D5E
:1035A0009E4F60EB72E08CD8CE01885D9E4F66EB3B
:1035B00072E086D889859A8501969A8789878EE6F2
:1035C00089A3C9C0CE018C5F9E4F0E94E80C9E016A
:1035D0002E593F4F80E090E0A0EAB1E4F9018083EA
:1035E0009183A283B3838E010A591F4FCE018E5956
:1035F0009F4F20E030E04AE755E4FC016081718193
:10360000828193810E946329DC01CB01F8018083D0
:103610009183A283B383CE018A599F4F20E030E08B
:1036200040E85FE3FC0160817181828193810E94A7
:10363000152888234CF4CE0186599F4F21E030E0B5
:10364000FC01318320836DC0CE018A599F4F20E059
:103650003FEF4FE757E4FC016081718182819381E4
:103660000E945F2918160CF04AC0CE018E599F4F58
:1036700020E030E040E251E4FC0160817181828110
:1036800093810E946329DC01CB018E0106591F4FF3
:10369000BC01CD010E948128DC01CB01F80191839E
:1036A000808324C0CE0184599F4F20E931E0FC0182
:1036B00031832083CE0184599F4FFC018081918109
:1036C0000197F1F79E0124593F4FF90191838083BF
:1036D000CE0186599F4F9E0126593F4FF901208107
:1036E000318121503109FC0131832083CE0186597B
:1036F0009F4FFC0180819181892BA1F62CC08E0106
:1037000006591F4FCE018A599F4FFC01608171817C
:10371000828193810E948128DC01CB01F801918391
:103720008083CE0182599F4F9E0126593F4FF90158
:1037300020813181FC0131832083CE0182599F4F4A
:10374000FC01808191810197F1F79E0122593F4F41
:10375000F90191838083CE01895E9E4F0E94FB0D0B
:10376000882309F02FCFCE01895E9E4F0E94240F3F
:1037700089A319A618A688A599A50A969E878D875C
:1037800088A599A54496988B8F8789A1882F90E06A
:1037900082349105D1F18434910509F467C08134F4
:1037A000910511F00C94DA234D855E856F92CE0160
:1037B0008D529F4F292F2F938F939E01295E3E4F4D
:1037C0008DB79EB741970FB6F8949EBF0FBE8DBFC1
:1037D0008DB79EB7019661E1F901DC0101900D9270
:1037E0006A95E1F7CA010E94C013EDB7FEB774965F
:1037F0000FB6F894DEBF0FBECDBFCE018D529F4FE6
:103800000E94B3131A86198641C04F8558897F924A
:10381000CE018E529F4F292F2F938F939E01295EA9
:103820003E4F8DB79EB741970FB6F8949EBF0FBE1F
:103830008DBF8DB79EB7019661E1F901DC01019062
:103840000D926A95E1F7CA010E94C013EDB7FEB769
:1038500074960FB6F894DEBF0FBECDBFCE018E5268
:103860009F4F0E94B3131A86198610C081E090E022
:103870009A838983CE0188589E4F63E972E00E9443
:10388000B4241A8619861C861B86000093C789817A
:103890009A81049709F08EC71C8A1B8A8B899C89A0
:1038A0000A969E8B8D8B8B899C894496988F8F8BE3
:1038B00089859A85892B09F029C3CE01885D9E4FA1
:1038C0000E949113CE01885D9E4F6CEB72E00E94C6
:1038D00060132D893E89CE01875D9E4FB9010E94FC
:1038E000DA0B982F81E0953609F480E0882309F4FB
:1038F000F0C0CE01885D9E4F63EA72E00E946013C3
:10390000198EE1C02D893E89CE01875D9E4FB90198
:103910000E94DA0B89A3CE0188589E4F69A10E94AC
:103920009224CE01885D9E4F69A10E941B118D8952
:103930009E8901969E8B8D8B9E0120593F4F80E082
:1039400090E0AAEFB3E4F90180839183A283B3836B
:103950008E010C581F4FCE0180599F4F20E030E060
:103960004AE755E4FC0160817181828193810E9464
:103970006329DC01CB01F80180839183A283B383A7
:10398000CE018C589F4F20E030E040E85FE3FC011F
:1039900060817181828193810E94152888234CF473
:1039A000CE0188589F4F21E030E0FC013183208315
:1039B0006DC0CE018C589F4F20E03FEF4FE757E49A
:1039C000FC0160817181828193810E945F291816B8
:1039D0000CF04AC0CE0180599F4F20E030E040E219
:1039E00051E4FC0160817181828193810E9463298D
:1039F000DC01CB018E0108581F4FBC01CD010E9494
:103A00008128DC01CB01F8019183808324C0CE01A1
:103A100086589F4F20E931E0FC0131832083CE019D
:103A200086589F4FFC01808191810197F1F79E019B
:103A300026583F4FF90191838083CE0188589F4FCC
:103A40009E0128583F4FF9012081318121503109D1
:103A5000FC0131832083CE0188589F4FFC01808177
:103A60009181892BA1F62CC08E0108581F4FCE01E1
:103A70008C589F4FFC0160817181828193810E94EB
:103A80008128DC01CB01F80191838083CE01845829
:103A90009F4F9E0128583F4FF90120813181FC0141
:103AA00031832083CE0184589F4FFC018081918116
:103AB0000197F1F79E0124583F4FF90191838083CC
:103AC000898D8F5F898F898D893008F41BCF1C8A7F
:103AD0001B8A2F89388DCE01875D9E4FB9010E94C8
:103AE000DA0B982F81E0953609F480E0882309F4F9
:103AF000F6C0CE01885D9E4F60EC0E947B0FCE0128
:103B0000885D9E4F6DEA72E00E9460131A8EE0C0DD
:103B10002F89388DCE01875D9E4FB9010E94DA0B47
:103B200089A3CE0188589E4F69A1FCD6CE01885D3D
:103B30009E4F69A10E941B118F89988D0196988FC5
:103B40008F8B9E0122583F4F80E090E0AAEFB3E4B4
:103B5000F90180839183A283B3838E010E571F4F97
:103B6000CE0182589F4F20E030E04AE755E4FC0147
:103B700060817181828193810E946329DC01CB0184
:103B8000F80180839183A283B383CE018E579F4F28
:103B900020E030E040E85FE3FC01608171818281D8
:103BA00093810E94152888234CF4CE018A579F4F99
:103BB00021E030E0FC01318320836DC0CE018E57BF
:103BC0009F4F20E03FEF4FE757E4FC016081718198
:103BD000828193810E945F2918160CF04AC0CE01A1
:103BE00082589F4F20E030E040E251E4FC016081C8
:103BF0007181828193810E946329DC01CB018E0156
:103C00000A571F4FBC01CD010E948128DC01CB0166
:103C1000F8019183808324C0CE0188579F4F20E90B
:103C200031E0FC0131832083CE0188579F4FFC0196
:103C3000808191810197F1F79E0128573F4FF9014B
:103C400091838083CE018A579F4F9E012A573F4F11
:103C5000F9012081318121503109FC013183208318
:103C6000CE018A579F4FFC0180819181892BA1F65B
:103C70002CC08E010A571F4FCE018E579F4FFC015B
:103C800060817181828193810E948128DC01CB0156
:103C9000F80191838083CE0186579F4F9E012A575A
:103CA0003F4FF90120813181FC0131832083CE0116
:103CB00086579F4FFC01808191810197F1F79E010A
:103CC00026573F4FF901918380838A8D8F5F8A8FBA
:103CD0008A8D893008F41CCF1C8A1B8A06C0CE014D
:103CE000885D9E4F60EC0E947B0F2B893C89CE0142
:103CF000875D9E4FB9010E94DA0B982F81E09536BF
:103D000009F480E0882309F4F5C0CE01885D9E4F58
:103D100060EC0E947B0FCE01885D9E4F62EC72E0EA
:103D20000E9460131B8EE0C02B893C89CE01875D09
:103D30009E4FB9010E94DA0B89A3CE0188589E4F8D
:103D400069A1F0D5CE01885D9E4F69A10E941B112B
:103D50008B899C8901969C8B8B8B9E0124573F4FAE
:103D600080E090E0AAEFB3E4F90180839183A2831D
:103D7000B3838E0100571F4FCE0184579F4F20E021
:103D800030E04AE755E4FC016081718182819381D2
:103D90000E946329DC01CB01F80180839183A28317
:103DA000B383CE0180579F4F20E030E040E85FE3CF
:103DB000FC0160817181828193810E941528882392
:103DC0004CF4CE018C569F4F21E030E0FC01318352
:103DD00020836DC0CE0180579F4F20E03FEF4FE71B
:103DE00057E4FC0160817181828193810E945F2987
:103DF00018160CF04AC0CE0184579F4F20E030E0E7
:103E000040E251E4FC0160817181828193810E94D2
:103E10006329DC01CB018E010C561F4FBC01CD0183
:103E20000E948128DC01CB01F8019183808324C0AA
:103E3000CE018A569F4F20E931E0FC013183208377
:103E4000CE018A569F4FFC01808191810197F1F745
:103E50009E012A563F4FF90191838083CE018C56F3
:103E60009F4F9E012C563F4FF901208131812150F7
:103E70003109FC0131832083CE018C569F4FFC0118
:103E800080819181892BA1F62CC08E010C561F4F89
:103E9000CE0180579F4FFC016081718182819381A7
:103EA0000E948128DC01CB01F80191838083CE013F
:103EB00088569F4F9E012C563F4FF901208131813A
:103EC000FC0131832083CE0188569F4FFC01808105
:103ED00091810197F1F79E0128563F4FF901918397
:103EE00080838B8D8F5F8B8F8B8D893008F41CCFF7
:103EF0001C8A1B8ACE01885D9E4F66EB72E00E9491
:103F0000601389859A8501969A8789878EE689A3A9
:103F1000C9C0CE018C5F9E4F0E94E80C9E012656C0
:103F20003F4F80E090E0A0EAB1E4F9018083918303
:103F3000A283B3838E0102561F4FCE0186569F4F38
:103F400020E030E04AE755E4FC0160817181828124
:103F500093810E946329DC01CB01F8018083918366
:103F6000A283B383CE0182569F4F20E030E040E829
:103F70005FE3FC0160817181828193810E94152839
:103F800088234CF4CE018E559F4F21E030E0FC0198
:103F9000318320836DC0CE0182569F4F20E03FEFDA
:103FA0004FE757E4FC0160817181828193810E9417
:103FB0005F2918160CF04AC0CE0186569F4F20E0AC
:103FC00030E040E251E4FC016081718182819381A3
:103FD0000E946329DC01CB018E010E551F4FBC01ED
:103FE000CD010E948128DC01CB01F80191838083FF
:103FF00024C0CE018C559F4F20E931E0FC01318374
:104000002083CE018C559F4FFC01808191810197C7
:10401000F1F79E012C553F4FF90191838083CE012A
:104020008E559F4F9E012E553F4FF90120813181C2
:1040300021503109FC0131832083CE018E559F4FE1
:10404000FC0180819181892BA1F62CC08E010E5537
:104050001F4FCE0182569F4FFC016081718182818A
:1040600093810E948128DC01CB01F8019183808338
:10407000CE018A559F4F9E012E553F4FF901208159
:104080003181FC0131832083CE018A559F4FFC0191
:10409000808191810197F1F79E012A553F4FF901E7
:1040A00091838083CE01895E9E4F0E94FB0D882301
:1040B00009F02FCFCE01895E9E4F0E94240F89A365
:1040C0001C8A1B8A8B899C890A969E8B8D8B8B8977
:1040D0009C894496988F8F8B89A1882F90E0823499
:1040E000910509F42AC18334910524F481349105A2
:1040F00051F060C38334910509F436C284349105CC
:1041000009F449C357C32D893E89CE01875D9E4F6F
:10411000B9010E94DA0B982F81E0953609F480E00E
:10412000882309F401C1CE01885D9E4F0E9491133E
:10413000CE01885D9E4F65EC72E00E946013CE0157
:1041400088589E4F6EEC72E00FD4CE01885D9E4F72
:1041500060EC0E947B0F1C8EE3C02D893E89CE014E
:10416000875D9E4FB9010E94DA0B89A3CE01885862
:104170009E4F69A1D7D3CE01885D9E4F69A10E9451
:104180001B11CE01895F9E4F69A10E945C018D8940
:104190009E8901969E8B8D8B9E0128553F4F80E016
:1041A00090E0AAEFB3E4F90180839183A283B38303
:1041B0008E0104551F4FCE0188559F4F20E030E0FF
:1041C0004AE755E4FC0160817181828193810E94FC
:1041D0006329DC01CB01F80180839183A283B3833F
:1041E000CE0184559F4F20E030E040E85FE3FC01C2
:1041F000608171818281938118D788234CF4CE012C
:1042000080559F4F21E030E0FC01318320836BC05B
:10421000CE0184559F4F20E03FEF4FE757E4FC016C
:1042200060817181828193810E945F2918160CF050
:1042300049C0CE0188559F4F20E030E040E251E474
:10424000FC0160817181828193810E946329DC017C
:10425000CB018E0100551F4FBC01CD0152D7DC01AF
:10426000CB01F8019183808324C0CE018E549F4FEF
:1042700020E931E0FC0131832083CE018E549F4F31
:10428000FC01808191810197F1F79E012E543F4FEF
:10429000F90191838083CE0180559F4F9E01205567
:1042A0003F4FF9012081318121503109FC013183D7
:1042B0002083CE0180559F4FFC0180819181892B05
:1042C000A1F62BC08E0100551F4FCE0184559F4F84
:1042D000FC01608171818281938113D7DC01CB0164
:1042E000F80191838083CE018C549F4F9E0120550D
:1042F0003F4FF90120813181FC0131832083CE01C0
:104300008C549F4FFC01808191810197F1F79E01B0
:104310002C543F4FF901918380838C8D8F5F8C8F5C
:104320008C8D893008F419CF1C8A1B8A81E090E0BB
:104330009A8389831A8619863DC22F89388DCE01CA
:10434000875D9E4FB9010E94DA0B982F81E0953668
:1043500009F480E0882309F4FEC0CE01885D9E4FF9
:104360000E949113CE01885D9E4F65EC72E00E9421
:104370006013CE0188589E4F6EEC72E0F5D2CE01EC
:10438000885D9E4F60EC0E947B0F1D8EE0C02F89E0
:10439000388DCE01875D9E4FB9010E94DA0B89A34B
:1043A000CE01895F9E4F69A10E945C01CE018858B1
:1043B0009E4F69A1B7D2CE01885D9E4F69A10E9430
:1043C0001B118F89988D0196988F8F8B9E012A548F
:1043D0003F4F80E090E0AAEFB3E4F901808391833E
:1043E000A283B3838E0106541F4FCE018A549F4F80
:1043F00020E030E04AE755E4FC0160817181828170
:10440000938161D7DC01CB01F80180839183A28382
:10441000B383CE0186549F4F20E030E040E85FE355
:10442000FC016081718182819381FFD588234CF4E6
:10443000CE0182549F4F21E030E0FC013183208384
:1044400069C0CE0186549F4F20E03FEF4FE757E40D
:10445000FC01608171818281938131D718160CF043
:1044600048C0CE018A549F4F20E030E040E251E442
:10447000FC01608171818281938125D7DC01CB01B0
:104480008E0102541F4FBC01CD013BD6DC01CB0194
:10449000F8019183808324C0CE0180549F4F20E98E
:1044A00031E0FC0131832083CE0180549F4FFC0119
:1044B000808191810197F1F79E0120543F4FF901CE
:1044C00091838083CE0182549F4F9E0122543F4F9F
:1044D000F9012081318121503109FC013183208390
:1044E000CE0182549F4FFC0180819181892BA1F6DE
:1044F0002BC08E0102541F4FCE0186549F4FFC01EA
:104500006081718182819381FCD5DC01CB01F8014E
:1045100091838083CE018E539F4F9E0122543F4F43
:10452000F90120813181FC0131832083CE018E533A
:104530009F4FFC01808191810197F1F79E012E53DD
:104540003F4FF901918380838D8D8F5F8D8F8D8D8E
:10455000893008F41CCF1C8A1B8A81E090E09A8382
:1045600089831A86198626C12B893C89CE01875DED
:104570009E4FB9010E94DA0B982F81E0953609F41D
:1045800080E0882309F4FEC0CE01885D9E4F0E9422
:104590009113CE01885D9E4F65EC72E00E9460131E
:1045A000CE0188589E4F6EEC72E0DED1CE01885D60
:1045B0009E4F60EC0E947B0F1E8EE0C02B893C89D1
:1045C000CE01875D9E4FB9010E94DA0B89A3CE010F
:1045D000895F9E4F69A10E945C01CE0188589E4F61
:1045E00069A1A0D1CE01885D9E4F69A10E941B11D7
:1045F0008B899C8901969C8B8B8B9E012C533F4F02
:1046000080E090E0AAEFB3E4F90180839183A28374
:10461000B3838E0108531F4FCE018C539F4F20E070
:1046200030E04AE755E4FC01608171818281938129
:104630004AD6DC01CB01F80180839183A283B38346
:10464000CE0188539F4F20E030E040E85FE3FC015B
:104650006081718182819381E8D488234CF4CE01FA
:1046600084539F4F21E030E0FC013183208369C0F7
:10467000CE0188539F4F20E03FEF4FE757E4FC0106
:1046800060817181828193811AD618160CF048C01E
:10469000CE018C539F4F20E030E040E251E4FC011A
:1046A00060817181828193810ED6DC01CB018E0104
:1046B00004531F4FBC01CD0124D5DC01CB01F8010F
:1046C0009183808324C0CE0182539F4F20E931E043
:1046D000FC0131832083CE0182539F4FFC018081F6
:1046E00091810197F1F79E0122533F4FF901918388
:1046F0008083CE0184539F4F9E0124533F4FF90185
:104700002081318121503109FC0131832083CE0188
:1047100084539F4FFC0180819181892BA1F62BC08E
:104720008E0104531F4FCE0188539F4FFC016081BF
:10473000718182819381E5D4DC01CB01F801918301
:104740008083CE0180539F4F9E0124533F4FF90138
:1047500020813181FC0131832083CE0180539F4F22
:10476000FC01808191810197F1F79E0120533F4F19
:10477000F901918380838E8D8F5F8E8F8E8D89302E
:1047800008F41CCF1C8A1B8A1A86198681E090E0E7
:104790009A8389830FC081E090E09A838983CE0158
:1047A00088589E4F68ED72E0DFD01A8619861C8605
:1047B0001B8600000C945416CF93DF931F921F9218
:1047C000CDB7DEB79A83898389819A81FC011386EC
:1047D000128689819A81FC011586148689819A81C5
:1047E000FC01178616860F900F90DF91CF910895E8
:1047F000CF93DF9300D0CDB7DEB79A8389836B83E5
:1048000089819A81FC018485958529813A81820F6D
:10481000931F2B81FC01208389819A81FC0184856F
:1048200095859C012F5F3F4F89819A81FC013587D7
:10483000248789819A81FC01868597859C012F5F59
:104840003F4F89819A81FC013787268789819A8128
:10485000FC01848595850A9729F489819A81FC0158
:10486000158614860F900F900F90DF91CF910895C9
:10487000AF92CF92EF920F93CF93DF93CDB7DEB786
:104880002B970FB6F894DEBF0FBECDBF9A838983F6
:104890006B832C833D834E835F830887E986CA86BA
:1048A000AB8689819A81029687DF89819A814296B7
:1048B00083DF8B81882F90E0880F991F8A5E9D4F40
:1048C000DC012D913C9189819A81FC013183208307
:1048D00089819A81DC01ED91FC918C819D81AE8171
:1048E000BF81CB84EA8409852885AC01BD01CF0155
:1048F00092D28B81882F90E0880F991F8E579C4F02
:1049000029813A81FC01318320832B960FB6F894DC
:10491000DEBF0FBECDBFDF91CF910F91EF90CF9053
:10492000AF900895CF93DF9300D0CDB7DEB79A83D1
:1049300089836B8389819A81429656D2982F81E030
:104940008927882359F089819A8142966B8150DFAB
:1049500089819A81FC01808191810FD30F900F9002
:104960000F90DF91CF910895CF93DF9300D000D0C7
:10497000CDB7DEB79C838B837E836D831A821982C9
:1049800011C089819A812D813E81820F931FFC0184
:1049900020818B819C81622FC5DF89819A8101965C
:1049A0009A83898389819A812D813E81820F931F09
:1049B000FC018081882329F726960FB6F894DEBF84
:1049C0000FBECDBFDF91CF910895CF93DF931F929C
:1049D000CDB7DEB789838981882F90E0880F991F32
:1049E0008E579C4FFC01808191810296FDD1982FBA
:1049F00081E089278823E1F08981882F90E0880F62
:104A0000991F8E579C4FFC0180819181FC01808110
:104A100091818FD2282F8981882F90E0880F991F4C
:104A20008E579C4FFC01808191810296622FE0DEBF
:104A30000F90DF91CF910895CF93DF931F92CDB761
:104A4000DEB789838981882F90E0880F991F8E5760
:104A50009C4FFC018081918142960E941D0C982FF1
:104A600081E089278823F1F08981882F90E0880FE1
:104A7000991F8E579C4FFC018081918142960E9424
:104A8000340C282F8981882F90E0880F991F8E572A
:104A90009C4FFC0180819181FC0180819181622F7A
:104AA00059D20EC08981882F90E0880F991F8E57A8
:104AB0009C4FFC0180819181FC018081918174D2A5
:104AC0000F90DF91CF9108951F920F9200905F0099
:104AD0000F92112400905B000F922F933F934F93FE
:104AE0005F936F937F938F939F93AF93BF93EF9356
:104AF000FF93CF93DF93CDB7DEB780E066DFDF9122
:104B0000CF91FF91EF91BF91AF919F918F917F9145
:104B10006F915F914F913F912F910F9000925B00A9
:104B20000F9000925F000F901F9018951F920F92A8
:104B300000905F000F92112400905B000F922F9362
:104B40003F934F935F936F937F938F939F93AF9315
:104B5000BF93EF93FF93CF93DF93CDB7DEB780E0A2
:104B60006BDFDF91CF91FF91EF91BF91AF919F915B
:104B70008F917F916F915F914F913F912F910F9006
:104B800000925B000F9000925F000F901F901895AD
:104B90001F920F9200905F000F92112400905B0013
:104BA0000F922F933F934F935F936F937F938F93C6
:104BB0009F93AF93BF93EF93FF93CF93DF93CDB7C3
:104BC000DEB781E002DFDF91CF91FF91EF91BF91DE
:104BD000AF919F918F917F916F915F914F913F9195
:104BE0002F910F9000925B000F9000925F000F904A
:104BF0001F9018951F920F9200905F000F92112442
:104C000000905B000F922F933F934F935F936F93AE
:104C10007F938F939F93AF93BF93EF93FF93CF9324
:104C2000DF93CDB7DEB781E007DFDF91CF91FF9152
:104C3000EF91BF91AF919F918F917F916F915F9114
:104C40004F913F912F910F9000925B000F90009237
:104C50005F000F901F9018951F920F9200905F00B9
:104C60000F92112400905B000F922F933F934F936C
:104C70005F936F937F938F939F93AF93BF93EF93C4
:104C8000FF93CF93DF93CDB7DEB782E09EDEDF9157
:104C9000CF91FF91EF91BF91AF919F918F917F91B4
:104CA0006F915F914F913F912F910F9000925B0018
:104CB0000F9000925F000F901F9018951F920F9217
:104CC00000905F000F92112400905B000F922F93D1
:104CD0003F934F935F936F937F938F939F93AF9384
:104CE000BF93EF93FF93CF93DF93CDB7DEB782E00F
:104CF000A3DEDF91CF91FF91EF91BF91AF919F9193
:104D00008F917F916F915F914F913F912F910F9074
:104D100000925B000F9000925F000F901F9018951B
:104D20001F920F9200905F000F92112400905B0081
:104D30000F922F933F934F935F936F937F938F9334
:104D40009F93AF93BF93EF93FF93CF93DF93CDB731
:104D5000DEB783E03ADEDF91CF91FF91EF91BF9113
:104D6000AF919F918F917F916F915F914F913F9103
:104D70002F910F9000925B000F9000925F000F90B8
:104D80001F9018951F920F9200905F000F921124B0
:104D900000905B000F922F933F934F935F936F931D
:104DA0007F938F939F93AF93BF93EF93FF93CF9393
:104DB000DF93CDB7DEB783E03FDEDF91CF91FF9188
:104DC000EF91BF91AF919F918F917F916F915F9183
:104DD0004F913F912F910F9000925B000F900092A6
:104DE0005F000F901F901895CF93DF931F921F9233
:104DF000CDB7DEB79A83898389819A81FC01868544
:104E0000978521E00A9709F020E0822F0F900F90FC
:104E1000DF91CF910895CF92EF920F93CF93DF93CD
:104E2000CDB7DEB76A970FB6F894DEBF0FBECDBF21
:104E30009A8389834B835C836D837E832F8308876A
:104E4000E986CA868F81882369F580E492E4AFE021
:104E5000B0E02B813C814D815E81BC01CD01BBD096
:104E6000DA01C9010197A109B109892F9A2FAB2F46
:104E7000BB27282F89819A81FC01258380E492E455
:104E8000AFE0B0E02B813C814D815E81BC01CD0162
:104E9000A2D0DA01C9012FEF280F89819A81FC0184
:104EA00024832CC080E894E8AEE1B0E02B813C8103
:104EB0004D815E81BC01CD018ED0DA01C90101971F
:104EC000A109B109892F9A2FAB2FBB27282F8981E0
:104ED0009A81FC01258380E894E8AEE1B0E02B8163
:104EE0003C814D815E81BC01CD0175D0DA01C901E3
:104EF0002FEF280F89819A81FC01248389819A816F
:104F000028E9FC01218398858985982B8A85292F9A
:104F1000282B89819A81FC0122836A960FB6F89426
:104F2000DEBF0FBECDBFDF91CF910F91EF90CF903D
:104F30000895CF93DF931F921F92CDB7DEB79A8368
:104F4000898389819A81FC0186810F900F90DF917E
:104F5000CF910895CF93DF9300D0CDB7DEB79A837A
:104F600089836B8389819A812B81FC0126830F9031
:104F70000F900F90DF91CF910895CF93DF931F9201
:104F80001F92CDB7DEB79A83898389819A81FC010C
:104F90008181282F206289819A81FC0121830F90D1
:104FA0000F90DF91CF910895CF93DF931F921F92BF
:104FB000CDB7DEB79A83898389819A81FC0181818B
:104FC000282F2F7D89819A81FC0121830F900F90DA
:104FD000DF91CF910895A1E21A2EAA1BBB1BFD0100
:104FE0000DC0AA1FBB1FEE1FFF1FA217B307E407C8
:104FF000F50720F0A21BB30BE40BF50B661F771F20
:10500000881F991F1A9469F76095709580959095FF
:105010009B01AC01BD01CF010895EE0FFF1F881F5A
:105020008BBF0790F691E02D1994D4D008F481E05D
:1050300008950CD00AC102D140F0F9D030F021F42B
:105040005F3F19F0EBC0511134C1EEC00FD198F39E
:105050009923C9F35523B1F3951B550BBB27AA27F9
:1050600062177307840738F09F5F5F4F220F331F6B
:10507000441FAA1FA9F333D00E2E3AF0E0E830D037
:1050800091505040E695001CCAF729D0FE2F27D03A
:10509000660F771F881FBB1F261737074807AB0708
:1050A000B0E809F0BB0B802DBF01FF2793585F4F7D
:1050B0002AF09E3F510568F0B1C0FBC05F3FECF3A2
:1050C000983EDCF3869577956795B795F7959F5F42
:1050D000C9F7880F911D9695879597F90895E1E096
:1050E000660F771F881FBB1F621773078407BA07F5
:1050F00020F0621B730B840BBA0BEE1F88F7E09550
:105100000895BCD088F09F5790F0B92F9927B751D8
:10511000A0F0D1F0660F771F881F991F1AF0BA957B
:10512000C9F712C0B13081F0C3D0B1E00895C0C05A
:10513000672F782F8827B85F39F0B93FCCF3869571
:1051400077956795B395D9F73EF4909580957095CE
:1051500061957F4F8F4F9F4F0895E89409C097FB4B
:105160003EF490958095709561957F4F8F4F9F4F3E
:105170009923A9F0F92F96E9BB279395F695879582
:1051800077956795B795F111F8CFFAF4BB0F11F445
:1051900060FF1BC06F5F7F4F8F4F9F4F16C08823EC
:1051A00011F096E911C0772321F09EE8872F762F22
:1051B00005C0662371F096E8862F70E060E02AF063
:1051C0009A95660F771F881FDAF7880F969587954F
:1051D00097F90895990F0008550FAA0BE0E8FEEF24
:1051E00016161706E807F907C0F012161306E407AB
:1051F000F50798F0621B730B840B950B39F40A26A4
:1052000061F0232B242B252B21F408950A2609F481
:10521000A140A6958FEF811D811D089597F99F6785
:1052200080E870E060E008959FEF80EC089500242E
:105230000A941616170618060906089500240A94FB
:1052400012161306140605060895092E0394000C81
:1052500011F4882352F0BB0F40F4BF2B11F460FF10
:1052600004C06F5F7F4F8F4F9F4F089557FD905839
:10527000440F551F59F05F3F71F04795880F97FB1A
:10528000991F61F09F3F79F08795089512161306D4
:105290001406551FF2CF4695F1DF08C01616170603
:1052A0001806991FF1CF8695710561050894089538
:1052B000E894BB2766277727CB0197F908958ADF03
:1052C00008F48FEF08950BD0C0CFB1DF28F0B6DF20
:1052D00018F0952309F0A2CFA7CF1124EACFC6DF9B
:1052E000A0F3959FD1F3950F50E0551F629FF001F9
:1052F000729FBB27F00DB11D639FAA27F00DB11D52
:10530000AA1F649F6627B00DA11D661F829F2227DA
:10531000B00DA11D621F739FB00DA11D621F839F61
:10532000A00D611D221F749F3327A00D611D231F37
:10533000849F600D211D822F762F6A2F11249F5785
:1053400050408AF0E1F088234AF0EE0FFF1FBB1FA8
:10535000661F771F881F91505040A9F79E3F510547
:1053600070F05CCFA6CF5F3FECF3983EDCF3869500
:1053700077956795B795F795E7959F5FC1F7FE2BF2
:10538000880F911D9695879597F90895F999FECF05
:1053900092BD81BDF89A992780B50895262FF99975
:1053A000FECF1FBA92BD81BD20BD0FB6F894FA9A08
:0C53B000F99A0FBE01960895F894FFCF03
:1053BC0020002300260029002C002F0032000001C1
:1053CC00030106010901C000C800D00030013132D0
:1053DC00334134353642373839432A302344446913
:1053EC00676974652061207365710053656C2E20AC
:1053FC004D6F646F2E20413A204F6E00423A43535A
:10540C0065712E202020433A4453657100496E6427
:10541C006F204F6E00496E646F20437365710049B5
:10542C006E646F2044736571004F6E6C696E652EEF
:10543C0020443A566F6C74617200446973636F75E3
:10544C003A2000566F6C742E2049646C65005365CD
:10545C00713A00413A00413A4164642000423A00FA
:10546C00423A41646400443A566F6C00447365716F
:10547C003A00433A0044697363616E646F00646977
:10548C007363616E646F2000566F6C742E445365A9
:10549C00710031323334353637383900656565651E
:1054AC0065656565650004040404060407070707C1
:1054BC0001010101080807070303030300000000B2
:1054CC0000000000020202020202020203060606AB
:1054DC000A0A0A0A0A0A0A0A01010101000000006C
:1054EC00000000000000000000000000010210207D
:1054FC0020080810204010204080020102010804FE
:10550C000201010204081020408080402010080491
:10551C0002018004020180402010080402010804EA
:10552C00020101020408102040800102040810202E
:02553C004080AD
:00000001FF
